S02700004F6E2D64656D616E642054726166666963206C6967687420636F6E74726F6C2E7372656372
S11300000C942A000C9434000C9434000C943400A6
S11300100C9434000C9434000C9434000C9434008C
S11300200C9434000C9434000C9434000C9434007C
S11300300C9434000C9434000C9434000C9434006C
S11300400C9434000C9434000C9434000C9434005C
S11300500C94340011241FBECFE5D8E0DEBFCDBF21
S11300600E9485000C94E2010C94000060E081E49D
S11300700E94790061E081E40E94790062E081E4F9
S11300800E94790060E082E40E94790061E082E4E9
S11300900E94790062E082E40E94790062E084E4D4
S11300A00E9472000895CF93DF931F92CDB7DEB7FD
S11300B0AE014F5F5F4F62E084E40E947600898165
S11300C0882319F0813031F009C060E081E40E9496
S11300D0810004C060E081E40E947D000F90DF9104
S11300E0CF91089540E00E948A0008950E947E0105
S11300F0089541E00E948A00089541E00E940401AD
S1130100089540E00E94040108950E9436000E9470
S11301105300FDCF823431F118F4813439F008955D
S11301208334E1F1843409F454C0089541110CC0BE
S11301302AB381E090E002C0880F991F6A95E2F724
S1130140809582238ABB0895413009F05CC02AB3AC
S113015081E090E002C0880F991F6A95E2F7822B34
S11301608ABB089541110CC027B381E090E002C01E
S1130170880F991F6A95E2F78095822387BB0895BB
S1130180413009F040C027B381E090E002C0880FFD
S1130190991F6A95E2F7822B87BB089541110CC021
S11301A024B381E090E002C0880F991F6A95E2F7BA
S11301B08095822384BB0895413029F524B381E0DE
S11301C090E002C0880F991F6A95E2F7822B84BBE6
S11301D0089541110CC021B381E090E002C0880F62
S11301E0991F6A95E2F78095822381BB0895413077
S11301F051F421B381E090E002C0880F991F6A9501
S1130200E2F7822B81BB0895823431F118F48134F2
S113021039F008958334E1F1843409F454C0089525
S113022041110CC02BB381E090E002C0880F991FEC
S11302306A95E2F7809582238BBB0895413009F0DB
S11302405CC02BB381E090E002C0880F991F6A95CF
S1130250E2F7822B8BBB089541110CC028B381E0D7
S113026090E002C0880F991F6A95E2F78095822377
S113027088BB0895413009F040C028B381E090E084
S113028002C0880F991F6A95E2F7822B88BB0895F4
S113029041110CC025B381E090E002C0880F991F82
S11302A06A95E2F78095822385BB0895413029F54C
S11302B025B381E090E002C0880F991F6A95E2F7A8
S11302C0822B85BB089541110CC022B381E090E0DC
S11302D002C0880F991F6A95E2F78095822382BB3A
S11302E00895413051F422B381E090E002C0880FB8
S11302F0991F6A95E2F7822B82BB0895823401F13B
S113030018F4813439F00895833481F1843409F484
S113031043C0089579B381E090E09C01062E02C0A9
S1130320220F331F0A94E2F7872F90E0822393234E
S113033002C0959587956A95E2F7FA01808308953E
S113034076B381E090E09C01062E02C0220F331F99
S11303500A94E2F7872F90E08223932302C09595B5
S113036087956A95E2F7FA018083089573B381E073
S113037090E09C01062E02C0220F331F0A94E2F77C
S1130380872F90E08223932302C0959587956A95E1
S1130390E2F7FA018083089570B381E090E09C0154
S11303A0062E02C0220F331F0A94E2F7872F90E033
S11303B08223932302C0959587956A95E2F7FA0103
S10B03C080830895F894FFCF37
S9030000FC
